:020000040000FA
:020000002028B6
:08000800F000030E8312F10069
:100010000B1911208B181A20710E8300F00E700E30
:1000200009000B11F20B18282820831220308606B5
:100030002B200C288B1083160230810683120C288B
:1000400028202B2030203C20000000000000242825
:100050000A30F200080083123C308100831208004D
:1000600083128501860107309F008316FF308500CB
:10007000DF30860083120800831697308100B0308D
:060080008B008312080052
:02400E00213F50
:00000001FF
