:020000040000FA
:020000002B28AB
:080008000B190B280C1813283A
:100010008C1818281E280B118B123C20861E2528B0
:10002000061F1F281E280C100616121540201E2819
:100030008C100612121146208B161E28090070081B
:10004000003A03191E28F0031E287008F73A031916
:100050001E28F00A1E284A203C204020F00146209D
:100060004E205920000000000000000000000000A9
:1000700000000000000032288312E33081000800F5
:100080008312F0308E00D8308F0008008312700881
:1000900091000800831606128312080083160130AF
:1000A0008100F73092008312313090000B309200C3
:1000B0000800831603308C008312E0308B000800A8
:02400E00213F50
:00000001FF
