:020000040000FA
:020000002F28A7
:08000800F000030E8312F10069
:100010000B1D2A280B116C308100061E1228861E2B
:1000200024282A28FF30720603191E28F20A7208B3
:1000300095000310950C0310950C2A28FF30150627
:1000400003192A28950A2A280030150603192A2898
:1000500095032A28710E8300F00E700E0900831696
:1000600056308100F7308600F93092008312073055
:100070009F00A0308B0006309200F20195010C30F9
:04008000970041287C
:02400E00213F50
:00000001FF
