:020000040000FA
:0200000038289E
:08000800F000030E8312F10069
:100010000B190F280C1824288C182C2833280B11A6
:100020008B12E3308100861E1E28061F18283328F5
:100030007208003A03193328F20333287208F73A9A
:1000400003193328F20A33280C1006161215F03063
:100050008E00D8308F0033288C10061212117208CF
:1000600091008B163328710E8300F00E700E09007C
:100070000030F200831603308C000612013081003C
:10008000F73092008312E0308B00E3308100F030D3
:100090008E00D8308F00313090000B3092004F2806
:02400E00213F50
:00000001FF
