:020000040000FA
:020000002028B6
:08000800F000030E8312F10069
:100010000B1911208B181A20710E8300F00E700E30
:1000200009000B11F20B18282C20831220308606B1
:100030002F200C288B1083160230810683120C2887
:100040002C202F2033203F20000000000000242817
:10005000831207309F0008000A30F2000800831264
:100060003C308100080083128501860107309F0023
:100070008316FF308500DF30860083120800831668
:0C00800097308100B0308B008312080024
:02400E00213F50
:00000001FF
