:020000040000FA
:020000002B28AB
:08000800F000030E8312F10069
:100010000B1913200C181C208B182520710E83003F
:10002000F00E700E09000B11F20B1A283620831205
:10003000203086063C200E280C10F30B2328392094
:1000400083121030860641200E288B108316023052
:10005000810683120E28362039203C2041204E2074
:1000600047205A2000000000000032281430F2001F
:1000700008000530F300080083123C308100831231
:1000800008008312B0308E003C308F0008008316C9
:100090000C1483120C10313090000800831285017B
:1000A000860107309F008316FF308500CF30860021
:1000B00083120800831697308100F0308B00831282
:0200C000080036
:02400E00213F50
:00000001FF
