:020000040000FA
:020000002D28A9
:080008000B190B280C1813283A
:100010008C18192820280B118B123E20861E2128AF
:10002000061F272820280C100616861412154220B9
:1000300020288C1006128610121148208B162028BA
:1000400009007008003A03192028F00320287008DE
:10005000FF3A03192028F00A20284C203E20422095
:10006000F001482051205C2000000000000000004A
:100070000000000000000000000034288312E3307C
:10008000810008008312F0308E00D8308F00080005
:1000900083127008910008008316ED3086008312E9
:1000A0000800831601308100FF3092008312313046
:1000B00090000B3092000800831603308C008312EE
:0600C000E0308B00080097
:02400E00213F50
:00000001FF
