:020000040000FA
:020000004A288C
:080008000B190B280C1813283A
:100010008C1829283D280B118B125D20861E3E2846
:10002000061F44283D280C106120711C19287208F5
:100030000616F11C1D2873088614711D21287408EA
:100040000615F11D252875088615F0006720121584
:100050003D288C10711C2D280612F11C30288610AA
:10006000711D33280611F11D362886111211031057
:10007000F10D711A82208B163D2809007208003A92
:1000800003193D28F2033D287208F73A03193D2869
:10009000F20A3D28822085206B205D206120F0013E
:1000A000672070207B20000000000000000000009E
:1000B000000000000000000053288312E33081009C
:1000C000080083123C308E00F6308F000800831247
:1000D0007008910008008316E13086008312080042
:1000E000831601308100F730920083123130900086
:1000F0000B3092000800831603308C008312E0302E
:100100008B0008000130F1000800F201F301F40156
:04011000F5010800ED
:02400E00213F50
:00000001FF
